:0C087C0048656C6C6F20776F726C640034
:100821007D737C00EF4E6017D3ED9400EC94004093
:0F08310007ED1D70F31C80F0EF1F70E81E80E5CF
:010840002295
:0F086D00758920759850758DFD758BFDD28E2283
:080894008F99308EFDC28E2207
:10085A00120841FF600C120894740129F9E43AFA6B
:03086A0080EE22FB
:08089C003098FDC298AF9922CB
:0C08000012086D7BFF7A08797C12085A00
:10080C0012089C8F087FE87E03120821E50804FF7C
:03081C001208942B
:02081F0080EB6C
:030000000208886B
:0C088800787FE4F6D8FD758108020800B6
:10084100BB010689828A83E0225002E722BBFE02B5
:09085100E32289828A83E49322E8
:00000001FF
