:030000000208876C
:0C088700787FE4F6D8FD75810F0208555B
:080800008F0B8E0A8D098C0894
:10080800E4F50FF50EF50DF50CAF0BAE0AAD09AC1E
:1008180008AB0FAA0EA90DA80CC3120871502DE43D
:10082800F589758CFD758A17D28C308DFDC28CC206
:100838008DE4FAF9F8E50F2401F50FEA350EF50E07
:0C084800E9350DF50DE8350CF50C80BD10
:010854002281
:10085500C2A0D2A07F647E007D007C00120800C289
:0C086500A07FC87E007D007C000208001F
:10087100EB9FF5F0EA9E42F0E99D42F0EC6480C8FE
:0608810064809845F0229E
:00000001FF
